{
  "_format": "hh-sol-artifact-1",
  "contractName": "NonfungiblePositionManager",
  "sourceName": "contracts/elixir-periphery/NonfungiblePositionManager.sol",
  "abi": [
    {
      "inputs": [
        {
          "internalType": "address",
          "name": "_factory",
          "type": "address"
        },
        {
          "internalType": "address",
          "name": "_WETH9",
          "type": "address"
        },
        {
          "internalType": "address",
          "name": "_tokenDescriptor_",
          "type": "address"
        },
        {
          "internalType": "address",
          "name": "_elixirRewarder_",
          "type": "address"
        }
      ],
      "stateMutability": "nonpayable",
      "type": "constructor"
    },
    {
      "anonymous": false,
      "inputs": [
        {
          "indexed": true,
          "internalType": "address",
          "name": "owner",
          "type": "address"
        },
        {
          "indexed": true,
          "internalType": "address",
          "name": "approved",
          "type": "address"
        },
        {
          "indexed": true,
          "internalType": "uint256",
          "name": "tokenId",
          "type": "uint256"
        }
      ],
      "name": "Approval",
      "type": "event"
    },
    {
      "anonymous": false,
      "inputs": [
        {
          "indexed": true,
          "internalType": "address",
          "name": "owner",
          "type": "address"
        },
        {
          "indexed": true,
          "internalType": "address",
          "name": "operator",
          "type": "address"
        },
        {
          "indexed": false,
          "internalType": "bool",
          "name": "approved",
          "type": "bool"
        }
      ],
      "name": "ApprovalForAll",
      "type": "event"
    },
    {
      "anonymous": false,
      "inputs": [
        {
          "indexed": true,
          "internalType": "uint256",
          "name": "tokenId",
          "type": "uint256"
        },
        {
          "indexed": false,
          "internalType": "address",
          "name": "recipient",
          "type": "address"
        }
      ],
      "name": "ClaimReward",
      "type": "event"
    },
    {
      "anonymous": false,
      "inputs": [
        {
          "indexed": true,
          "internalType": "uint256",
          "name": "tokenId",
          "type": "uint256"
        },
        {
          "indexed": false,
          "internalType": "address",
          "name": "recipient",
          "type": "address"
        },
        {
          "indexed": false,
          "internalType": "uint256",
          "name": "amount0",
          "type": "uint256"
        },
        {
          "indexed": false,
          "internalType": "uint256",
          "name": "amount1",
          "type": "uint256"
        }
      ],
      "name": "Collect",
      "type": "event"
    },
    {
      "anonymous": false,
      "inputs": [
        {
          "indexed": true,
          "internalType": "uint256",
          "name": "tokenId",
          "type": "uint256"
        },
        {
          "indexed": false,
          "internalType": "uint128",
          "name": "liquidity",
          "type": "uint128"
        },
        {
          "indexed": false,
          "internalType": "uint256",
          "name": "amount0",
          "type": "uint256"
        },
        {
          "indexed": false,
          "internalType": "uint256",
          "name": "amount1",
          "type": "uint256"
        }
      ],
      "name": "DecreaseLiquidity",
      "type": "event"
    },
    {
      "anonymous": false,
      "inputs": [
        {
          "indexed": true,
          "internalType": "uint256",
          "name": "tokenId",
          "type": "uint256"
        },
        {
          "indexed": false,
          "internalType": "uint128",
          "name": "liquidity",
          "type": "uint128"
        },
        {
          "indexed": false,
          "internalType": "uint256",
          "name": "amount0",
          "type": "uint256"
        },
        {
          "indexed": false,
          "internalType": "uint256",
          "name": "amount1",
          "type": "uint256"
        }
      ],
      "name": "IncreaseLiquidity",
      "type": "event"
    },
    {
      "anonymous": false,
      "inputs": [
        {
          "indexed": true,
          "internalType": "address",
          "name": "from",
          "type": "address"
        },
        {
          "indexed": true,
          "internalType": "address",
          "name": "to",
          "type": "address"
        },
        {
          "indexed": true,
          "internalType": "uint256",
          "name": "tokenId",
          "type": "uint256"
        }
      ],
      "name": "Transfer",
      "type": "event"
    },
    {
      "inputs": [],
      "name": "DOMAIN_SEPARATOR",
      "outputs": [
        {
          "internalType": "bytes32",
          "name": "",
          "type": "bytes32"
        }
      ],
      "stateMutability": "view",
      "type": "function"
    },
    {
      "inputs": [],
      "name": "PERMIT_TYPEHASH",
      "outputs": [
        {
          "internalType": "bytes32",
          "name": "",
          "type": "bytes32"
        }
      ],
      "stateMutability": "view",
      "type": "function"
    },
    {
      "inputs": [],
      "name": "WETH9",
      "outputs": [
        {
          "internalType": "address",
          "name": "",
          "type": "address"
        }
      ],
      "stateMutability": "view",
      "type": "function"
    },
    {
      "inputs": [
        {
          "internalType": "address",
          "name": "to",
          "type": "address"
        },
        {
          "internalType": "uint256",
          "name": "tokenId",
          "type": "uint256"
        }
      ],
      "name": "approve",
      "outputs": [],
      "stateMutability": "nonpayable",
      "type": "function"
    },
    {
      "inputs": [
        {
          "internalType": "address",
          "name": "owner",
          "type": "address"
        }
      ],
      "name": "balanceOf",
      "outputs": [
        {
          "internalType": "uint256",
          "name": "",
          "type": "uint256"
        }
      ],
      "stateMutability": "view",
      "type": "function"
    },
    {
      "inputs": [],
      "name": "baseURI",
      "outputs": [
        {
          "internalType": "string",
          "name": "",
          "type": "string"
        }
      ],
      "stateMutability": "pure",
      "type": "function"
    },
    {
      "inputs": [
        {
          "internalType": "uint256",
          "name": "tokenId",
          "type": "uint256"
        }
      ],
      "name": "burn",
      "outputs": [],
      "stateMutability": "payable",
      "type": "function"
    },
    {
      "inputs": [
        {
          "internalType": "uint256",
          "name": "tokenId",
          "type": "uint256"
        },
        {
          "internalType": "address",
          "name": "recipient",
          "type": "address"
        }
      ],
      "name": "claimReward",
      "outputs": [],
      "stateMutability": "payable",
      "type": "function"
    },
    {
      "inputs": [
        {
          "components": [
            {
              "internalType": "uint256",
              "name": "tokenId",
              "type": "uint256"
            },
            {
              "internalType": "address",
              "name": "recipient",
              "type": "address"
            },
            {
              "internalType": "uint128",
              "name": "amount0Max",
              "type": "uint128"
            },
            {
              "internalType": "uint128",
              "name": "amount1Max",
              "type": "uint128"
            }
          ],
          "internalType": "struct INonfungiblePositionManager.CollectParams",
          "name": "params",
          "type": "tuple"
        }
      ],
      "name": "collect",
      "outputs": [
        {
          "internalType": "uint256",
          "name": "amount0",
          "type": "uint256"
        },
        {
          "internalType": "uint256",
          "name": "amount1",
          "type": "uint256"
        }
      ],
      "stateMutability": "payable",
      "type": "function"
    },
    {
      "inputs": [
        {
          "internalType": "address",
          "name": "token0",
          "type": "address"
        },
        {
          "internalType": "address",
          "name": "token1",
          "type": "address"
        },
        {
          "internalType": "uint24",
          "name": "fee",
          "type": "uint24"
        },
        {
          "internalType": "uint160",
          "name": "sqrtPriceX96",
          "type": "uint160"
        }
      ],
      "name": "createAndInitializePoolIfNecessary",
      "outputs": [
        {
          "internalType": "address",
          "name": "pool",
          "type": "address"
        }
      ],
      "stateMutability": "payable",
      "type": "function"
    },
    {
      "inputs": [
        {
          "components": [
            {
              "internalType": "uint256",
              "name": "tokenId",
              "type": "uint256"
            },
            {
              "internalType": "uint128",
              "name": "liquidity",
              "type": "uint128"
            },
            {
              "internalType": "uint256",
              "name": "amount0Min",
              "type": "uint256"
            },
            {
              "internalType": "uint256",
              "name": "amount1Min",
              "type": "uint256"
            },
            {
              "internalType": "uint256",
              "name": "deadline",
              "type": "uint256"
            }
          ],
          "internalType": "struct INonfungiblePositionManager.DecreaseLiquidityParams",
          "name": "params",
          "type": "tuple"
        }
      ],
      "name": "decreaseLiquidity",
      "outputs": [
        {
          "internalType": "uint256",
          "name": "amount0",
          "type": "uint256"
        },
        {
          "internalType": "uint256",
          "name": "amount1",
          "type": "uint256"
        }
      ],
      "stateMutability": "payable",
      "type": "function"
    },
    {
      "inputs": [
        {
          "internalType": "uint256",
          "name": "amount0Owed",
          "type": "uint256"
        },
        {
          "internalType": "uint256",
          "name": "amount1Owed",
          "type": "uint256"
        },
        {
          "internalType": "bytes",
          "name": "data",
          "type": "bytes"
        }
      ],
      "name": "elixirMintCallback",
      "outputs": [],
      "stateMutability": "nonpayable",
      "type": "function"
    },
    {
      "inputs": [],
      "name": "factory",
      "outputs": [
        {
          "internalType": "address",
          "name": "",
          "type": "address"
        }
      ],
      "stateMutability": "view",
      "type": "function"
    },
    {
      "inputs": [
        {
          "internalType": "uint256",
          "name": "tokenId",
          "type": "uint256"
        }
      ],
      "name": "forgoReward",
      "outputs": [],
      "stateMutability": "payable",
      "type": "function"
    },
    {
      "inputs": [
        {
          "internalType": "uint256",
          "name": "tokenId",
          "type": "uint256"
        }
      ],
      "name": "getApproved",
      "outputs": [
        {
          "internalType": "address",
          "name": "",
          "type": "address"
        }
      ],
      "stateMutability": "view",
      "type": "function"
    },
    {
      "inputs": [
        {
          "components": [
            {
              "internalType": "uint256",
              "name": "tokenId",
              "type": "uint256"
            },
            {
              "internalType": "uint256",
              "name": "amount0Desired",
              "type": "uint256"
            },
            {
              "internalType": "uint256",
              "name": "amount1Desired",
              "type": "uint256"
            },
            {
              "internalType": "uint256",
              "name": "amount0Min",
              "type": "uint256"
            },
            {
              "internalType": "uint256",
              "name": "amount1Min",
              "type": "uint256"
            },
            {
              "internalType": "uint256",
              "name": "deadline",
              "type": "uint256"
            }
          ],
          "internalType": "struct INonfungiblePositionManager.IncreaseLiquidityParams",
          "name": "params",
          "type": "tuple"
        }
      ],
      "name": "increaseLiquidity",
      "outputs": [
        {
          "internalType": "uint128",
          "name": "liquidity",
          "type": "uint128"
        },
        {
          "internalType": "uint256",
          "name": "amount0",
          "type": "uint256"
        },
        {
          "internalType": "uint256",
          "name": "amount1",
          "type": "uint256"
        }
      ],
      "stateMutability": "payable",
      "type": "function"
    },
    {
      "inputs": [
        {
          "internalType": "address",
          "name": "owner",
          "type": "address"
        },
        {
          "internalType": "address",
          "name": "operator",
          "type": "address"
        }
      ],
      "name": "isApprovedForAll",
      "outputs": [
        {
          "internalType": "bool",
          "name": "",
          "type": "bool"
        }
      ],
      "stateMutability": "view",
      "type": "function"
    },
    {
      "inputs": [
        {
          "components": [
            {
              "internalType": "address",
              "name": "token0",
              "type": "address"
            },
            {
              "internalType": "address",
              "name": "token1",
              "type": "address"
            },
            {
              "internalType": "uint24",
              "name": "fee",
              "type": "uint24"
            },
            {
              "internalType": "int24",
              "name": "tickLower",
              "type": "int24"
            },
            {
              "internalType": "int24",
              "name": "tickUpper",
              "type": "int24"
            },
            {
              "internalType": "uint256",
              "name": "amount0Desired",
              "type": "uint256"
            },
            {
              "internalType": "uint256",
              "name": "amount1Desired",
              "type": "uint256"
            },
            {
              "internalType": "uint256",
              "name": "amount0Min",
              "type": "uint256"
            },
            {
              "internalType": "uint256",
              "name": "amount1Min",
              "type": "uint256"
            },
            {
              "internalType": "address",
              "name": "recipient",
              "type": "address"
            },
            {
              "internalType": "uint256",
              "name": "deadline",
              "type": "uint256"
            }
          ],
          "internalType": "struct INonfungiblePositionManager.MintParams",
          "name": "params",
          "type": "tuple"
        }
      ],
      "name": "mint",
      "outputs": [
        {
          "internalType": "uint256",
          "name": "tokenId",
          "type": "uint256"
        },
        {
          "internalType": "uint128",
          "name": "liquidity",
          "type": "uint128"
        },
        {
          "internalType": "uint256",
          "name": "amount0",
          "type": "uint256"
        },
        {
          "internalType": "uint256",
          "name": "amount1",
          "type": "uint256"
        }
      ],
      "stateMutability": "payable",
      "type": "function"
    },
    {
      "inputs": [
        {
          "internalType": "bytes[]",
          "name": "data",
          "type": "bytes[]"
        }
      ],
      "name": "multicall",
      "outputs": [
        {
          "internalType": "bytes[]",
          "name": "results",
          "type": "bytes[]"
        }
      ],
      "stateMutability": "payable",
      "type": "function"
    },
    {
      "inputs": [],
      "name": "name",
      "outputs": [
        {
          "internalType": "string",
          "name": "",
          "type": "string"
        }
      ],
      "stateMutability": "view",
      "type": "function"
    },
    {
      "inputs": [
        {
          "internalType": "uint256",
          "name": "tokenId",
          "type": "uint256"
        }
      ],
      "name": "ownerOf",
      "outputs": [
        {
          "internalType": "address",
          "name": "",
          "type": "address"
        }
      ],
      "stateMutability": "view",
      "type": "function"
    },
    {
      "inputs": [
        {
          "internalType": "address",
          "name": "spender",
          "type": "address"
        },
        {
          "internalType": "uint256",
          "name": "tokenId",
          "type": "uint256"
        },
        {
          "internalType": "uint256",
          "name": "deadline",
          "type": "uint256"
        },
        {
          "internalType": "uint8",
          "name": "v",
          "type": "uint8"
        },
        {
          "internalType": "bytes32",
          "name": "r",
          "type": "bytes32"
        },
        {
          "internalType": "bytes32",
          "name": "s",
          "type": "bytes32"
        }
      ],
      "name": "permit",
      "outputs": [],
      "stateMutability": "payable",
      "type": "function"
    },
    {
      "inputs": [
        {
          "internalType": "uint256",
          "name": "tokenId",
          "type": "uint256"
        }
      ],
      "name": "positionReward",
      "outputs": [
        {
          "internalType": "uint192",
          "name": "rewardPerLiquidityInsideLastX64",
          "type": "uint192"
        },
        {
          "internalType": "uint32",
          "name": "rewardLastUpdated",
          "type": "uint32"
        },
        {
          "internalType": "uint32",
          "name": "rewardLastCollected",
          "type": "uint32"
        },
        {
          "internalType": "uint256",
          "name": "rewardOwed",
          "type": "uint256"
        }
      ],
      "stateMutability": "view",
      "type": "function"
    },
    {
      "inputs": [
        {
          "internalType": "uint256",
          "name": "tokenId",
          "type": "uint256"
        }
      ],
      "name": "positions",
      "outputs": [
        {
          "internalType": "uint96",
          "name": "nonce",
          "type": "uint96"
        },
        {
          "internalType": "address",
          "name": "operator",
          "type": "address"
        },
        {
          "internalType": "address",
          "name": "token0",
          "type": "address"
        },
        {
          "internalType": "address",
          "name": "token1",
          "type": "address"
        },
        {
          "internalType": "uint24",
          "name": "fee",
          "type": "uint24"
        },
        {
          "internalType": "int24",
          "name": "tickLower",
          "type": "int24"
        },
        {
          "internalType": "int24",
          "name": "tickUpper",
          "type": "int24"
        },
        {
          "internalType": "uint128",
          "name": "liquidity",
          "type": "uint128"
        },
        {
          "internalType": "uint256",
          "name": "feeGrowthInside0LastX128",
          "type": "uint256"
        },
        {
          "internalType": "uint256",
          "name": "feeGrowthInside1LastX128",
          "type": "uint256"
        },
        {
          "internalType": "uint128",
          "name": "tokensOwed0",
          "type": "uint128"
        },
        {
          "internalType": "uint128",
          "name": "tokensOwed1",
          "type": "uint128"
        }
      ],
      "stateMutability": "view",
      "type": "function"
    },
    {
      "inputs": [],
      "name": "refundETH",
      "outputs": [],
      "stateMutability": "payable",
      "type": "function"
    },
    {
      "inputs": [
        {
          "internalType": "address",
          "name": "from",
          "type": "address"
        },
        {
          "internalType": "address",
          "name": "to",
          "type": "address"
        },
        {
          "internalType": "uint256",
          "name": "tokenId",
          "type": "uint256"
        }
      ],
      "name": "safeTransferFrom",
      "outputs": [],
      "stateMutability": "nonpayable",
      "type": "function"
    },
    {
      "inputs": [
        {
          "internalType": "address",
          "name": "from",
          "type": "address"
        },
        {
          "internalType": "address",
          "name": "to",
          "type": "address"
        },
        {
          "internalType": "uint256",
          "name": "tokenId",
          "type": "uint256"
        },
        {
          "internalType": "bytes",
          "name": "_data",
          "type": "bytes"
        }
      ],
      "name": "safeTransferFrom",
      "outputs": [],
      "stateMutability": "nonpayable",
      "type": "function"
    },
    {
      "inputs": [
        {
          "internalType": "address",
          "name": "token",
          "type": "address"
        },
        {
          "internalType": "uint256",
          "name": "value",
          "type": "uint256"
        },
        {
          "internalType": "uint256",
          "name": "deadline",
          "type": "uint256"
        },
        {
          "internalType": "uint8",
          "name": "v",
          "type": "uint8"
        },
        {
          "internalType": "bytes32",
          "name": "r",
          "type": "bytes32"
        },
        {
          "internalType": "bytes32",
          "name": "s",
          "type": "bytes32"
        }
      ],
      "name": "selfPermit",
      "outputs": [],
      "stateMutability": "payable",
      "type": "function"
    },
    {
      "inputs": [
        {
          "internalType": "address",
          "name": "token",
          "type": "address"
        },
        {
          "internalType": "uint256",
          "name": "nonce",
          "type": "uint256"
        },
        {
          "internalType": "uint256",
          "name": "expiry",
          "type": "uint256"
        },
        {
          "internalType": "uint8",
          "name": "v",
          "type": "uint8"
        },
        {
          "internalType": "bytes32",
          "name": "r",
          "type": "bytes32"
        },
        {
          "internalType": "bytes32",
          "name": "s",
          "type": "bytes32"
        }
      ],
      "name": "selfPermitAllowed",
      "outputs": [],
      "stateMutability": "payable",
      "type": "function"
    },
    {
      "inputs": [
        {
          "internalType": "address",
          "name": "token",
          "type": "address"
        },
        {
          "internalType": "uint256",
          "name": "nonce",
          "type": "uint256"
        },
        {
          "internalType": "uint256",
          "name": "expiry",
          "type": "uint256"
        },
        {
          "internalType": "uint8",
          "name": "v",
          "type": "uint8"
        },
        {
          "internalType": "bytes32",
          "name": "r",
          "type": "bytes32"
        },
        {
          "internalType": "bytes32",
          "name": "s",
          "type": "bytes32"
        }
      ],
      "name": "selfPermitAllowedIfNecessary",
      "outputs": [],
      "stateMutability": "payable",
      "type": "function"
    },
    {
      "inputs": [
        {
          "internalType": "address",
          "name": "token",
          "type": "address"
        },
        {
          "internalType": "uint256",
          "name": "value",
          "type": "uint256"
        },
        {
          "internalType": "uint256",
          "name": "deadline",
          "type": "uint256"
        },
        {
          "internalType": "uint8",
          "name": "v",
          "type": "uint8"
        },
        {
          "internalType": "bytes32",
          "name": "r",
          "type": "bytes32"
        },
        {
          "internalType": "bytes32",
          "name": "s",
          "type": "bytes32"
        }
      ],
      "name": "selfPermitIfNecessary",
      "outputs": [],
      "stateMutability": "payable",
      "type": "function"
    },
    {
      "inputs": [
        {
          "internalType": "address",
          "name": "operator",
          "type": "address"
        },
        {
          "internalType": "bool",
          "name": "approved",
          "type": "bool"
        }
      ],
      "name": "setApprovalForAll",
      "outputs": [],
      "stateMutability": "nonpayable",
      "type": "function"
    },
    {
      "inputs": [
        {
          "internalType": "bytes4",
          "name": "interfaceId",
          "type": "bytes4"
        }
      ],
      "name": "supportsInterface",
      "outputs": [
        {
          "internalType": "bool",
          "name": "",
          "type": "bool"
        }
      ],
      "stateMutability": "view",
      "type": "function"
    },
    {
      "inputs": [
        {
          "internalType": "address",
          "name": "token",
          "type": "address"
        },
        {
          "internalType": "uint256",
          "name": "amountMinimum",
          "type": "uint256"
        },
        {
          "internalType": "address",
          "name": "recipient",
          "type": "address"
        }
      ],
      "name": "sweepToken",
      "outputs": [],
      "stateMutability": "payable",
      "type": "function"
    },
    {
      "inputs": [],
      "name": "symbol",
      "outputs": [
        {
          "internalType": "string",
          "name": "",
          "type": "string"
        }
      ],
      "stateMutability": "view",
      "type": "function"
    },
    {
      "inputs": [
        {
          "internalType": "uint256",
          "name": "index",
          "type": "uint256"
        }
      ],
      "name": "tokenByIndex",
      "outputs": [
        {
          "internalType": "uint256",
          "name": "",
          "type": "uint256"
        }
      ],
      "stateMutability": "view",
      "type": "function"
    },
    {
      "inputs": [
        {
          "internalType": "address",
          "name": "owner",
          "type": "address"
        },
        {
          "internalType": "uint256",
          "name": "index",
          "type": "uint256"
        }
      ],
      "name": "tokenOfOwnerByIndex",
      "outputs": [
        {
          "internalType": "uint256",
          "name": "",
          "type": "uint256"
        }
      ],
      "stateMutability": "view",
      "type": "function"
    },
    {
      "inputs": [
        {
          "internalType": "uint256",
          "name": "tokenId",
          "type": "uint256"
        }
      ],
      "name": "tokenURI",
      "outputs": [
        {
          "internalType": "string",
          "name": "",
          "type": "string"
        }
      ],
      "stateMutability": "view",
      "type": "function"
    },
    {
      "inputs": [],
      "name": "totalSupply",
      "outputs": [
        {
          "internalType": "uint256",
          "name": "",
          "type": "uint256"
        }
      ],
      "stateMutability": "view",
      "type": "function"
    },
    {
      "inputs": [
        {
          "internalType": "address",
          "name": "from",
          "type": "address"
        },
        {
          "internalType": "address",
          "name": "to",
          "type": "address"
        },
        {
          "internalType": "uint256",
          "name": "tokenId",
          "type": "uint256"
        }
      ],
      "name": "transferFrom",
      "outputs": [],
      "stateMutability": "nonpayable",
      "type": "function"
    },
    {
      "inputs": [
        {
          "internalType": "uint256",
          "name": "amountMinimum",
          "type": "uint256"
        },
        {
          "internalType": "address",
          "name": "recipient",
          "type": "address"
        }
      ],
      "name": "unwrapWETH9",
      "outputs": [],
      "stateMutability": "payable",
      "type": "function"
    },
    {
      "inputs": [
        {
          "internalType": "address",
          "name": "_elixirRewarder_",
          "type": "address"
        }
      ],
      "name": "updateRewardManager",
      "outputs": [],
      "stateMutability": "payable",
      "type": "function"
    },
    {
      "inputs": [
        {
          "internalType": "address",
          "name": "_tokenDescriptor_",
          "type": "address"
        }
      ],
      "name": "updateTokenDescriptor",
      "outputs": [],
      "stateMutability": "payable",
      "type": "function"
    },
    {
      "stateMutability": "payable",
      "type": "receive"
    }
  ],
  "bytecode": "0x610100604052600d80546001600160b01b0319166001176001600160b01b0316600160b01b1790553480156200003457600080fd5b50604051620063b4380380620063b48339810160408190526200005791620002fb565b83836040518060400160405280601481526020017f456c6978697220506f736974696f6e73204e465400000000000000000000000081525060405180604001604052806008815260200167495849522d504f5360c01b815250604051806040016040528060018152602001603160f81b8152508282620000e46301ffc9a760e01b620001ad60201b60201c565b8151620000f990600690602085019062000232565b5080516200010f90600790602084019062000232565b50620001226380ac58cd60e01b620001ad565b62000134635b5e139f60e01b620001ad565b6200014663780e9d6360e01b620001ad565b50508251602093840120608052805192019190912060a052506001600160601b0319606092831b811660c052911b1660e052600e80546001600160a01b039384166001600160a01b031991821617909155600f805492909316911617905550620003579050565b6001600160e01b031980821614156200020d576040805162461bcd60e51b815260206004820152601c60248201527f4552433136353a20696e76616c696420696e7465726661636520696400000000604482015290519081900360640190fd5b6001600160e01b0319166000908152602081905260409020805460ff19166001179055565b828054600181600116156101000203166002900490600052602060002090601f0160209004810192826200026a5760008555620002b5565b82601f106200028557805160ff1916838001178555620002b5565b82800160010185558215620002b5579182015b82811115620002b557825182559160200191906001019062000298565b50620002c3929150620002c7565b5090565b5b80821115620002c35760008155600101620002c8565b80516001600160a01b0381168114620002f657600080fd5b919050565b6000806000806080858703121562000311578384fd5b6200031c85620002de565b93506200032c60208601620002de565b92506200033c60408601620002de565b91506200034c60608601620002de565b905092959194509250565b60805160a05160c05160601c60e05160601c615fdb620003d96000398061021052806116a4528061178f52806118175280613758528061379e5280613812525080610a1c5280610d3e5280610e05528061102552806129f25280612c6c5280612e805280613234528061393e5250806114b85250806114975250615fdb6000f3fe6080604052600436106102005760003560e01c80634f6ccce7116101145780634f6ccce7146104b85780636352211e146104d85780636c0360eb146104f857806370a082311461050d57806375e39cec1461052d5780637ac2ff7b1461055d578063883164561461057057806395d89b411461059357806397f12a83146105a857806399fbab88146105bb578063a22cb465146105f3578063a4a78f0c14610613578063ac9650d814610626578063b88d4fde14610646578063c2e3140a14610666578063c45a015514610679578063c87b56dd1461068e578063df2ab5bb146106ae578063e70eb392146106c1578063e985e9c5146106d4578063f3995c67146106f4578063fc6f78651461070757610270565b806301ffc9a714610275578063050eb2eb146102ab57806306fdde03146102be578063081812fc146102e0578063095ea7b31461030d5780630c49ccbe1461032d57806312210e8a1461034e57806313ead562146103565780631507a8f41461036957806318160ddd14610389578063219f5d17146103ab57806323b872dd146103cd57806329048e7b146103ed5780632f745c591461040057806330adf81f146104205780633644e5151461043557806342842e0e1461044a57806342966c681461046a5780634659a4941461047d57806349404b7c146104905780634aa4a4fc146104a357610270565b3661027057336001600160a01b037f0000000000000000000000000000000000000000000000000000000000000000161461026e576040805162461bcd60e51b81526020600482015260096024820152684e6f7420574554483960b81b604482015290519081900360640190fd5b005b600080fd5b34801561028157600080fd5b50610295610290366004615419565b61071a565b6040516102a29190615a04565b60405180910390f35b61026e6102b9366004615108565b61073d565b3480156102ca57600080fd5b506102d3610767565b6040516102a29190615a6b565b3480156102ec57600080fd5b506103006102fb36600461577c565b6107fd565b6040516102a291906158a5565b34801561031957600080fd5b5061026e6103283660046152e4565b610850565b61034061033b366004615548565b610926565b6040516102a2929190615be1565b61026e610d12565b610300610364366004615178565b610d1c565b34801561037557600080fd5b5061026e6103843660046157db565b611010565b34801561039557600080fd5b5061039e61108e565b6040516102a29190615a0f565b6103be6103b9366004615559565b61109f565b6040516102a293929190615b6f565b3480156103d957600080fd5b5061026e6103e83660046151d1565b61137a565b61026e6103fb36600461577c565b6113d1565b34801561040c57600080fd5b5061039e61041b3660046152e4565b611423565b34801561042c57600080fd5b5061039e61144e565b34801561044157600080fd5b5061039e611472565b34801561045657600080fd5b5061026e6104653660046151d1565b611530565b61026e61047836600461577c565b61154b565b61026e61048b366004615350565b611606565b61026e61049e366004615794565b6116a0565b3480156104af57600080fd5b50610300611815565b3480156104c457600080fd5b5061039e6104d336600461577c565b611839565b3480156104e457600080fd5b506103006104f336600461577c565b61184f565b34801561050457600080fd5b506102d3611877565b34801561051957600080fd5b5061039e610528366004615108565b61187c565b34801561053957600080fd5b5061054d61054836600461577c565b6118e4565b6040516102a29493929190615b90565b61026e61056b366004615350565b611a31565b61058361057e366004615614565b611dc1565b6040516102a29493929190615bbd565b34801561059f57600080fd5b506102d361234a565b61026e6105b6366004615108565b6123ab565b3480156105c757600080fd5b506105db6105d636600461577c565b6123d5565b6040516102a29c9b9a99989796959493929190615bef565b3480156105ff57600080fd5b5061026e61060e3660046152b7565b61262a565b61026e610621366004615350565b61272b565b6106396106343660046153ab565b6127c4565b6040516102a291906159a4565b34801561065257600080fd5b5061026e610661366004615211565b612903565b61026e610674366004615350565b612961565b34801561068557600080fd5b506103006129f0565b34801561069a57600080fd5b506102d36106a936600461577c565b612a14565b61026e6106bc36600461530f565b612aae565b61026e6106cf366004615794565b612b86565b3480156106e057600080fd5b506102956106ef366004615140565b612ce4565b61026e610702366004615350565b612d12565b610340610715366004615531565b612d84565b6001600160e01b0319811660009081526020819052604090205460ff165b919050565b610745613232565b600f80546001600160a01b0319166001600160a01b0392909216919091179055565b60068054604080516020601f60026000196101006001881615020190951694909404938401819004810282018101909252828152606093909290918301828280156107f35780601f106107c8576101008083540402835291602001916107f3565b820191906000526020600020905b8154815290600101906020018083116107d657829003601f168201915b5050505050905090565b6000610808826132e0565b61082d5760405162461bcd60e51b815260040161082490615aa4565b60405180910390fd5b506000908152600c6020526040902054600160601b90046001600160a01b031690565b600061085b8261184f565b9050806001600160a01b0316836001600160a01b031614156108ae5760405162461bcd60e51b8152600401808060200182810382526021815260200180615f546021913960400191505060405180910390fd5b806001600160a01b03166108c06132ed565b6001600160a01b031614806108dc57506108dc816106ef6132ed565b6109175760405162461bcd60e51b8152600401808060200182810382526038815260200180615e5e6038913960400191505060405180910390fd5b61092183836132f1565b505050565b600080823561093481613367565b836080013561094281613390565b60006109546040870160208801615626565b6001600160801b03161161096757600080fd5b84356000908152600c602090815260409182902060018101549092600160801b9091046001600160801b0316916109a2918901908901615626565b6001600160801b0316816001600160801b031610156109c057600080fd5b6001828101546001600160501b03166000908152600b60209081526040808320815160608101835281546001600160a01b039081168252919095015490811692850192909252600160a01b90910462ffffff1690830152610a417f0000000000000000000000000000000000000000000000000000000000000000836133db565b60018501549091506001600160a01b0382169063a34123a790600160501b8104600290810b91600160681b9004900b610a8060408e0160208f01615626565b6040518463ffffffff1660e01b8152600401610a9e93929190615a45565b6040805180830381600087803b158015610ab757600080fd5b505af1158015610acb573d6000803e3d6000fd5b505050506040513d601f19601f82011682018060405250810190610aef91906157b8565b909850965060408901358810801590610b0c575088606001358710155b610b285760405162461bcd60e51b815260040161082490615ad7565b6001840154600090610b51903090600160501b8104600290810b91600160681b9004900b6134ba565b9050600080836001600160a01b031663514ea4bf846040518263ffffffff1660e01b8152600401610b829190615a0f565b60a06040518083038186803b158015610b9a57600080fd5b505afa158015610bae573d6000803e3d6000fd5b505050506040513d601f19601f82011682018060405250810190610bd29190615670565b50509250925050610bf787600201548303876001600160801b0316600160801b61350f565b6004880180546001600160801b03198116928e016001600160801b039182160181169290921790556003880154610c3891908303908816600160801b61350f565b6004880180546001600160801b03808216938e01600160801b928390048216011602919091179055610c6a87856135be565b6002870182905560038701819055610c8860408d0160208e01615626565b86038760010160106101000a8154816001600160801b0302191690836001600160801b031602179055508b600001357f26f6a048ee9138f2c0ce266f322cb99228e8d619ae2bff30c67f8dcf9d2377b48d6020016020810190610ceb9190615626565b8d8d604051610cfc93929190615b6f565b60405180910390a2505050505050505050915091565b610d1a613723565b565b6000836001600160a01b0316856001600160a01b031610610d3c57600080fd5b7f00000000000000000000000000000000000000000000000000000000000000006001600160a01b0316631698ee828686866040518463ffffffff1660e01b815260040180846001600160a01b03168152602001836001600160a01b031681526020018262ffffff168152602001935050505060206040518083038186803b158015610dc757600080fd5b505afa158015610ddb573d6000803e3d6000fd5b505050506040513d6020811015610df157600080fd5b505190506001600160a01b038116610f27577f00000000000000000000000000000000000000000000000000000000000000006001600160a01b031663a16712958686866040518463ffffffff1660e01b815260040180846001600160a01b03168152602001836001600160a01b031681526020018262ffffff1681526020019350505050602060405180830381600087803b158015610e9057600080fd5b505af1158015610ea4573d6000803e3d6000fd5b505050506040513d6020811015610eba57600080fd5b50516040805163f637731d60e01b81526001600160a01b03858116600483015291519293509083169163f637731d9160248082019260009290919082900301818387803b158015610f0a57600080fd5b505af1158015610f1e573d6000803e3d6000fd5b50505050611008565b6000816001600160a01b0316633850c7bd6040518163ffffffff1660e01b815260040160e06040518083038186803b158015610f6257600080fd5b505afa158015610f76573d6000803e3d6000fd5b505050506040513d60e0811015610f8c57600080fd5b505190506001600160a01b03811661100657816001600160a01b031663f637731d846040518263ffffffff1660e01b815260040180826001600160a01b03168152602001915050600060405180830381600087803b158015610fed57600080fd5b505af1158015611001573d6000803e3d6000fd5b505050505b505b949350505050565b600061101e8284018461556a565b905061104e7f00000000000000000000000000000000000000000000000000000000000000008260000151613733565b50841561106957805151602082015161106991903388613756565b83156110875761108781600001516020015182602001513387613756565b5050505050565b600061109a60026138e6565b905090565b60008060008360a001356110b281613390565b84356000908152600c602090815260408083206001808201546001600160501b0381168652600b855283862084516060808201875282546001600160a01b039081168352929094015480831682890190815262ffffff600160a01b9092048216838901908152885161014081018a528451861681529151909416818a0152925116828701523082850152600160501b8304600290810b810b608080850191909152600160681b909404810b900b60a0830152958c013560c0820152938b013560e0850152908a01356101008401528901356101208301529290611194906138f1565b6001870154939a50919850965091506000906111c7903090600160501b8104600290810b91600160681b9004900b6134ba565b9050600080836001600160a01b031663514ea4bf846040518263ffffffff1660e01b81526004016111f89190615a0f565b60a06040518083038186803b15801561121057600080fd5b505afa158015611224573d6000803e3d6000fd5b505050506040513d601f19601f820116820180604052508101906112489190615670565b50509250925050611284866002015483038760010160109054906101000a90046001600160801b03166001600160801b0316600160801b61350f565b6004870180546001600160801b0380821690930183166001600160801b0319909116179055600387015460018801546112cb9291840391600160801b91829004169061350f565b6004870180546001600160801b03600160801b8083048216909401811690930292169190911790556112fd86856135be565b60028601829055600386018190556001860180546001600160801b03600160801b80830482168e0182160291161790556040518b35907f3067048beee31b25b2f1681f88dac838c8bba36af25bfb2b7cf7473a5847e35f90611364908d908d908d90615b6f565b60405180910390a2505050505050509193909250565b61138b6113856132ed565b82613b2c565b6113c65760405162461bcd60e51b8152600401808060200182810382526031815260200180615f756031913960400191505060405180910390fd5b610921838383613bc8565b806113db81613367565b6000828152600c602052604090206113f1613d02565b60058201805463ffffffff92909216600160e01b026001600160e01b0390921691909117905560006006909101555050565b6001600160a01b03821660009081526001602052604081206114459083613d1e565b90505b92915050565b7f49ecf333e5b8c95c40fdafc95c1ad136e8914a8fb55e9dc8bb01eaa83a2df9ad81565b60007f8b73c3c69bb8fe3d512ecc4cf759cc79239f7b179b0ffacaa9a75d522b39400f7f00000000000000000000000000000000000000000000000000000000000000007f00000000000000000000000000000000000000000000000000000000000000006114df613d2a565b3060405160200180868152602001858152602001848152602001838152602001826001600160a01b031681526020019550505050505060405160208183030381529060405280519060200120905090565b61092183838360405180602001604052806000815250612903565b8061155581613367565b6000828152600c602052604090206001810154600160801b90046001600160801b0316158015611590575060048101546001600160801b0316155b80156115ae57506004810154600160801b90046001600160801b0316155b80156115bc57506006810154155b6115c557600080fd5b6000838152600c6020526040812081815560018101829055600281018290556003810182905560048101829055600581018290556006015561092183613d2e565b604080516323f2ebc360e21b815233600482015230602482015260448101879052606481018690526001608482015260ff851660a482015260c4810184905260e4810183905290516001600160a01b03881691638fcbaf0c9161010480830192600092919082900301818387803b15801561168057600080fd5b505af1158015611694573d6000803e3d6000fd5b50505050505050505050565b60007f00000000000000000000000000000000000000000000000000000000000000006001600160a01b03166370a08231306040518263ffffffff1660e01b815260040180826001600160a01b0316815260200191505060206040518083038186803b15801561170f57600080fd5b505afa158015611723573d6000803e3d6000fd5b505050506040513d602081101561173957600080fd5b5051905082811015611787576040805162461bcd60e51b8152602060048201526012602482015271496e73756666696369656e7420574554483960701b604482015290519081900360640190fd5b8015610921577f00000000000000000000000000000000000000000000000000000000000000006001600160a01b0316632e1a7d4d826040518263ffffffff1660e01b815260040180828152602001915050600060405180830381600087803b1580156117f357600080fd5b505af1158015611807573d6000803e3d6000fd5b505050506109218282613de9565b7f000000000000000000000000000000000000000000000000000000000000000081565b600080611847600284613ed8565b509392505050565b600061144882604051806060016040528060298152602001615ec06029913960029190613ef6565b606090565b60006001600160a01b0382166118c35760405162461bcd60e51b815260040180806020018281038252602a815260200180615e96602a913960400191505060405180910390fd5b6001600160a01b0382166000908152600160205260409020611448906138e6565b6000818152600c6020908152604080832081516101c08101835281546001600160601b03811682526001600160a01b03600160601b909104169381019390935260018101546001600160501b038116928401839052600160501b8104600290810b810b810b6060860152600160681b8204810b810b810b60808601526001600160801b03600160801b92839004811660a08701529083015460c0860152600383015460e08601526004830154808216610100870152919091041661012084015260058101546001600160c01b03811661014085015263ffffffff600160c01b82048116610160860152600160e01b90910416610180840152600601546101a083015282918291829190611a095760405162461bcd60e51b815260040161082490615b05565b806101400151816101600151826101800151836101a001519450945094509450509193509193565b83611a3b81613390565b6000611a45611472565b7f49ecf333e5b8c95c40fdafc95c1ad136e8914a8fb55e9dc8bb01eaa83a2df9ad8989611a7181613f03565b604080516020808201969096526001600160a01b03909416848201526060840192909252608083015260a08083018b90528151808403909101815260c08301825280519084012061190160f01b60e084015260e283019490945261010280830194909452805180830390940184526101229091019052815191012090506000611af98861184f565b9050806001600160a01b0316896001600160a01b03161415611b62576040805162461bcd60e51b815260206004820152601f60248201527f4552433732315065726d69743a20617070726f76616c20746f206f776e657200604482015290519081900360640190fd5b611b6b81613f38565b15611cd3576040805160208082018890528183018790526001600160f81b031960f88a901b1660608301528251604181840301815260618301808552630b135d3f60e11b90526065830186815260858401948552815160a585015281516001600160a01b03871695631626ba7e958995919260c59091019185019080838360005b83811015611c04578181015183820152602001611bec565b50505050905090810190601f168015611c315780820380516001836020036101000a031916815260200191505b50935050505060206040518083038186803b158015611c4f57600080fd5b505afa158015611c63573d6000803e3d6000fd5b505050506040513d6020811015611c7957600080fd5b50516001600160e01b031916630b135d3f60e11b14611cce576040805162461bcd60e51b815260206004820152600c60248201526b155b985d5d1a1bdc9a5e995960a21b604482015290519081900360640190fd5b611dac565b600060018388888860405160008152602001604052604051808581526020018460ff1681526020018381526020018281526020019450505050506020604051602081039080840390855afa158015611d2f573d6000803e3d6000fd5b5050604051601f1901519150506001600160a01b03811615801590611d655750816001600160a01b0316816001600160a01b0316145b611daa576040805162461bcd60e51b8152602060048201526011602482015270496e76616c6964207369676e617475726560781b604482015290519081900360640190fd5b505b611db689896132f1565b505050505050505050565b600080600080846101400135611dd681613390565b604080516101408101909152600090611ea29080611df760208b018b615108565b6001600160a01b03168152602001896020016020810190611e189190615108565b6001600160a01b03168152602001611e3660608b0160408c01615762565b62ffffff168152306020820152604001611e5660808b0160608c01615441565b60020b8152602001611e6e60a08b0160808c01615441565b60020b81526020018960a0013581526020018960c0013581526020018960e0013581526020018961010001358152506138f1565b92975090955093509050611eef611ec161014089016101208a01615108565b600d80546001600160b01b0319811660016001600160b01b0392831690810190921617909155975087613f3e565b6000611f1a30611f0560808b0160608c01615441565b611f1560a08c0160808d01615441565b6134ba565b9050600080836001600160a01b031663514ea4bf846040518263ffffffff1660e01b8152600401611f4b9190615a0f565b60a06040518083038186803b158015611f6357600080fd5b505afa158015611f77573d6000803e3d6000fd5b505050506040513d601f19601f82011682018060405250810190611f9b9190615670565b5050925092505060006120148560405180606001604052808e6000016020810190611fc69190615108565b6001600160a01b031681526020018e6020016020810190611fe79190615108565b6001600160a01b031681526020018e60400160208101906120089190615762565b62ffffff169052614059565b9050604051806101c0016040528060006001600160601b0316815260200160006001600160a01b03168152602001826001600160501b031681526020018c60600160208101906120649190615441565b60020b815260200161207c60a08e0160808f01615441565b60020b81526020018a6001600160801b0316815260200184815260200183815260200160006001600160801b0316815260200160006001600160801b0316815260200160006001600160c01b03168152602001600063ffffffff168152602001600063ffffffff1681526020016000815250600c60008c815260200190815260200160002060008201518160000160006101000a8154816001600160601b0302191690836001600160601b03160217905550602082015181600001600c6101000a8154816001600160a01b0302191690836001600160a01b0316021790555060408201518160010160006101000a8154816001600160501b0302191690836001600160501b03160217905550606082015181600101600a6101000a81548162ffffff021916908360020b62ffffff160217905550608082015181600101600d6101000a81548162ffffff021916908360020b62ffffff16021790555060a08201518160010160106101000a8154816001600160801b0302191690836001600160801b0316021790555060c0820151816002015560e082015181600301556101008201518160040160006101000a8154816001600160801b0302191690836001600160801b031602179055506101208201518160040160106101000a8154816001600160801b0302191690836001600160801b031602179055506101408201518160050160006101000a8154816001600160c01b0302191690836001600160c01b031602179055506101608201518160050160186101000a81548163ffffffff021916908363ffffffff16021790555061018082015181600501601c6101000a81548163ffffffff021916908363ffffffff1602179055506101a08201518160060155905050897f3067048beee31b25b2f1681f88dac838c8bba36af25bfb2b7cf7473a5847e35f8a8a8a60405161233593929190615b6f565b60405180910390a25050505050509193509193565b60078054604080516020601f60026000196101006001881615020190951694909404938401819004810282018101909252828152606093909290918301828280156107f35780601f106107c8576101008083540402835291602001916107f3565b6123b3613232565b600e80546001600160a01b0319166001600160a01b0392909216919091179055565b6000818152600c6020908152604080832081516101c08101835281546001600160601b03811682526001600160a01b03600160601b909104169381019390935260018101546001600160501b038116928401839052600160501b8104600290810b810b810b6060860152600160681b8204810b810b810b60808601526001600160801b03600160801b92839004811660a08701529083015460c0860152600383015460e08601526004830154808216610100870152919091041661012084015260058101546001600160c01b03811661014085015263ffffffff600160c01b82048116610160860152600160e01b90910416610180840152600601546101a0830152829182918291829182918291829182918291829182919061250a5760405162461bcd60e51b815260040161082490615b05565b6000600b600083604001516001600160501b03166001600160501b031681526020019081526020016000206040518060600160405290816000820160009054906101000a90046001600160a01b03166001600160a01b03166001600160a01b031681526020016001820160009054906101000a90046001600160a01b03166001600160a01b03166001600160a01b031681526020016001820160149054906101000a900462ffffff1662ffffff1662ffffff1681525050905081600001518260200151826000015183602001518460400151866060015187608001518860a001518960c001518a60e001518b61010001518c61012001519d509d509d509d509d509d509d509d509d509d509d509d50505091939597999b5091939597999b565b6126326132ed565b6001600160a01b0316826001600160a01b03161415612694576040805162461bcd60e51b815260206004820152601960248201527822a9219b99189d1030b8383937bb32903a379031b0b63632b960391b604482015290519081900360640190fd5b80600560006126a16132ed565b6001600160a01b03908116825260208083019390935260409182016000908120918716808252919093529120805460ff1916921515929092179091556126e56132ed565b6001600160a01b03167f17307eab39ab6107e8899845ad3d59bd9653f200f220920489ca2b5937696c318360405180821515815260200191505060405180910390a35050565b60408051636eb1769f60e11b81523360048201523060248201529051600019916001600160a01b0389169163dd62ed3e91604480820192602092909190829003018186803b15801561277c57600080fd5b505afa158015612790573d6000803e3d6000fd5b505050506040513d60208110156127a657600080fd5b505110156127bc576127bc868686868686611606565b505050505050565b6060816001600160401b03811180156127dc57600080fd5b5060405190808252806020026020018201604052801561281057816020015b60608152602001906001900390816127fb5790505b50905060005b828110156128fc576000803086868581811061282e57fe5b90506020028101906128409190615c89565b60405161284e929190615895565b600060405180830381855af49150503d8060008114612889576040519150601f19603f3d011682016040523d82523d6000602084013e61288e565b606091505b5091509150816128da576044815110156128a757600080fd5b600481019050808060200190518101906128c191906154c8565b60405162461bcd60e51b81526004016108249190615a6b565b808484815181106128e757fe5b60209081029190910101525050600101612816565b5092915050565b61291461290e6132ed565b83613b2c565b61294f5760405162461bcd60e51b8152600401808060200182810382526031815260200180615f756031913960400191505060405180910390fd5b61295b84848484614138565b50505050565b60408051636eb1769f60e11b8152336004820152306024820152905186916001600160a01b0389169163dd62ed3e91604480820192602092909190829003018186803b1580156129b057600080fd5b505afa1580156129c4573d6000803e3d6000fd5b505050506040513d60208110156129da57600080fd5b505110156127bc576127bc868686868686612d12565b7f000000000000000000000000000000000000000000000000000000000000000081565b6060612a1f826132e0565b612a2857600080fd5b600e5460405163e9dc637560e01b81526001600160a01b039091169063e9dc637590612a5a9030908690600401615a18565b60006040518083038186803b158015612a7257600080fd5b505afa158015612a86573d6000803e3d6000fd5b505050506040513d6000823e601f3d908101601f1916820160405261144891908101906154c8565b6000836001600160a01b03166370a08231306040518263ffffffff1660e01b815260040180826001600160a01b0316815260200191505060206040518083038186803b158015612afd57600080fd5b505afa158015612b11573d6000803e3d6000fd5b505050506040513d6020811015612b2757600080fd5b5051905082811015612b75576040805162461bcd60e51b815260206004820152601260248201527124b739bab33334b1b4b2b73a103a37b5b2b760711b604482015290519081900360640190fd5b801561295b5761295b84838361418a565b81612b9081613367565b6001600160a01b038216612ba357600080fd5b6000838152600c6020526040812060068101549091612bc0613d02565b600060068501559050612bd1613d02565b6005840180546001600160e01b0316600160e01b63ffffffff9390931692909202919091179055600f546001808501546001600160501b03166000908152600b6020908152604091829020825160608101845281546001600160a01b039081168252919094015480821692850192909252600160a01b90910462ffffff1691830191909152909116906332d5eeaf90879085908a90612c91907f0000000000000000000000000000000000000000000000000000000000000000906133db565b600589015460405160e087901b6001600160e01b0319168152612cca9594939291600160c01b900463ffffffff16908990600401615965565b600060405180830381600087803b15801561168057600080fd5b6001600160a01b03918216600090815260056020908152604080832093909416825291909152205460ff1690565b6040805163d505accf60e01b8152336004820152306024820152604481018790526064810186905260ff8516608482015260a4810184905260c4810183905290516001600160a01b0388169163d505accf9160e480830192600092919082900301818387803b15801561168057600080fd5b6000808235612d9281613367565b6000612da46060860160408701615626565b6001600160801b03161180612dd157506000612dc66080860160608701615626565b6001600160801b0316115b612dda57600080fd5b600080612ded6040870160208801615108565b6001600160a01b031614612e1057612e0b6040860160208701615108565b612e12565b305b85356000908152600c602090815260408083206001808201546001600160501b03168552600b8452828520835160608101855281546001600160a01b039081168252919092015490811694820194909452600160a01b90930462ffffff169183019190915292935090612ea57f0000000000000000000000000000000000000000000000000000000000000000836133db565b600484015460018501549192506001600160801b0380821692600160801b928390048216929004161561309b57600185015460405163a34123a760e01b81526001600160a01b0385169163a34123a791612f1c91600160501b8104600290810b92600160681b909204900b90600090600401615a45565b6040805180830381600087803b158015612f3557600080fd5b505af1158015612f49573d6000803e3d6000fd5b505050506040513d601f19601f82011682018060405250810190612f6d91906157b8565b5050600185015460009081906001600160a01b0386169063514ea4bf90612fab903090600160501b8104600290810b91600160681b9004900b6134ba565b6040518263ffffffff1660e01b8152600401612fc79190615a0f565b60a06040518083038186803b158015612fdf57600080fd5b505afa158015612ff3573d6000803e3d6000fd5b505050506040513d601f19601f820116820180604052508101906130179190615670565b50509250925050613053876002015483038860010160109054906101000a90046001600160801b03166001600160801b0316600160801b61350f565b8401935061308c876003015482038860010160109054906101000a90046001600160801b03166001600160801b0316600160801b61350f565b60028801929092556003870155015b6000806001600160801b0384166130b860608e0160408f01615626565b6001600160801b0316116130db576130d660608d0160408e01615626565b6130dd565b835b836001600160801b03168d60600160208101906130fa9190615626565b6001600160801b03161161311d5761311860808e0160608f01615626565b61311f565b835b60018901546040516309e3d67b60e31b81529294509092506001600160a01b03871691634f1eb3d891613172918c91600160501b8104600290810b92600160681b909204900b90889088906004016158fe565b6040805180830381600087803b15801561318b57600080fd5b505af115801561319f573d6000803e3d6000fd5b505050506040513d601f19601f820116820180604052508101906131c39190615642565b6004890180546001600160801b03196001600160801b03918216600160801b878a0384160217168689038216179091556040519281169d50169a508c35907f40d0efd1a53d60ecbf40971b9daf7dc90178c3aadc7aab1765632738fa8b8f0190610cfc908b908690869061593b565b7f00000000000000000000000000000000000000000000000000000000000000006001600160a01b0316638da5cb5b6040518163ffffffff1660e01b815260040160206040518083038186803b15801561328b57600080fd5b505afa15801561329f573d6000803e3d6000fd5b505050506040513d601f19601f820116820180604052508101906132c39190615124565b6001600160a01b0316336001600160a01b031614610d1a57600080fd5b60006114486002836142d1565b3390565b6000818152600c6020526040902080546001600160601b0316600160601b6001600160a01b03851690810291909117909155819061332e8261184f565b6001600160a01b03167f8c5be1e5ebec7d5bd14f71427d1e84f3dd0314c0f7b2291e5b200ac8c7c3b92560405160405180910390a45050565b6133713382613b2c565b61338d5760405162461bcd60e51b815260040161082490615a7e565b50565b8042111561338d576040805162461bcd60e51b8152602060048201526013602482015272151c985b9cd858dd1a5bdb881d1bdbc81bdb19606a1b604482015290519081900360640190fd5b600081602001516001600160a01b031682600001516001600160a01b03161061340357600080fd5b50805160208083015160409384015184516001600160a01b0394851681850152939091168385015262ffffff166060808401919091528351808403820181526080840185528051908301206001600160f81b031960a085015294901b6001600160601b03191660a183015260b58201939093527f41a723f9e6457830b1b7a44df4435fab88581d073226894b33131815dd674c2260d5808301919091528251808303909101815260f5909101909152805191012090565b604080516001600160601b0319606086901b16602080830191909152600285810b60e890811b60348501529085900b901b60378301528251601a818403018152603a90920190925280519101205b9392505050565b6000808060001985870986860292508281109083900303905080613545576000841161353a57600080fd5b508290049050613508565b80841161355157600080fd5b6000848688096000868103871696879004966002600389028118808a02820302808a02820302808a02820302808a02820302808a02820302808a02909103029181900381900460010186841190950394909402919094039290920491909117919091029150509392505050565b60018201546040516351c403f960e11b81526000916001600160a01b0384169163a38807f29161360791600160501b8204600290810b92600160681b9004900b90600401615a31565b60806040518083038186803b15801561361f57600080fd5b505afa158015613633573d6000803e3d6000fd5b505050506040513d601f19601f82011682018060405250810190613657919061545d565b60058701549094506001600160c01b03808616911610925061367c915050575061371f565b6005830154600160c01b900463ffffffff16156136d657600583015460018401546136ca916001600160c01b0390811684031690600160801b90046001600160801b0316600160401b61350f565b60068401805490910190555b6005830180546001600160c01b0319166001600160c01b0383161790556136fb613d02565b8360050160186101000a81548163ffffffff021916908363ffffffff160217905550505b5050565b4715610d1a57610d1a3347613de9565b600061373f83836133db565b9050336001600160a01b0382161461144857600080fd5b7f00000000000000000000000000000000000000000000000000000000000000006001600160a01b0316846001600160a01b03161480156137975750804710155b156138b9577f00000000000000000000000000000000000000000000000000000000000000006001600160a01b031663d0e30db0826040518263ffffffff1660e01b81526004016000604051808303818588803b1580156137f757600080fd5b505af115801561380b573d6000803e3d6000fd5b50505050507f00000000000000000000000000000000000000000000000000000000000000006001600160a01b031663a9059cbb83836040518363ffffffff1660e01b815260040180836001600160a01b0316815260200182815260200192505050602060405180830381600087803b15801561388757600080fd5b505af115801561389b573d6000803e3d6000fd5b505050506040513d60208110156138b157600080fd5b5061295b9050565b6001600160a01b0383163014156138da576138d584838361418a565b61295b565b61295b848484846142dd565b60006114488261442d565b6000806000806000604051806060016040528087600001516001600160a01b0316815260200187602001516001600160a01b03168152602001876040015162ffffff1681525090506139637f0000000000000000000000000000000000000000000000000000000000000000826133db565b91506000826001600160a01b0316633850c7bd6040518163ffffffff1660e01b815260040160e06040518083038186803b1580156139a057600080fd5b505afa1580156139b4573d6000803e3d6000fd5b505050506040513d601f19601f820116820180604052508101906139d891906156d1565b505050505050905060006139ef8860800151614431565b90506000613a008960a00151614431565b9050613a178383838c60c001518d60e00151614758565b9750505050816001600160a01b0316633c8a7d8d876060015188608001518960a00151896040518060400160405280888152602001336001600160a01b0316815250604051602001613a699190615b2f565b6040516020818303038152906040526040518663ffffffff1660e01b8152600401613a989594939291906158b9565b6040805180830381600087803b158015613ab157600080fd5b505af1158015613ac5573d6000803e3d6000fd5b505050506040513d601f19601f82011682018060405250810190613ae991906157b8565b61010088015191955093508410801590613b0857508561012001518310155b613b245760405162461bcd60e51b815260040161082490615ad7565b509193509193565b6000613b37826132e0565b613b725760405162461bcd60e51b815260040180806020018281038252602c815260200180615e32602c913960400191505060405180910390fd5b6000613b7d8361184f565b9050806001600160a01b0316846001600160a01b03161480613bb85750836001600160a01b0316613bad846107fd565b6001600160a01b0316145b8061100857506110088185612ce4565b826001600160a01b0316613bdb8261184f565b6001600160a01b031614613c205760405162461bcd60e51b8152600401808060200182810382526029815260200180615f0b6029913960400191505060405180910390fd5b6001600160a01b038216613c655760405162461bcd60e51b8152600401808060200182810382526024815260200180615de86024913960400191505060405180910390fd5b613c70838383610921565b613c7b6000826132f1565b6001600160a01b0383166000908152600160205260409020613c9d908261481c565b506001600160a01b0382166000908152600160205260409020613cc09082614828565b50613ccd60028284614834565b5080826001600160a01b0316846001600160a01b0316600080516020615f3483398151915260405160405180910390a4505050565b600063ffffffff4211613d15574261109a565b5063ffffffff90565b6000611445838361484a565b4690565b6000613d398261184f565b9050613d4781600084610921565b613d526000836132f1565b6000828152600860205260409020546002600019610100600184161502019091160415613d90576000828152600860205260408120613d9091615080565b6001600160a01b0381166000908152600160205260409020613db2908361481c565b50613dbe6002836148ae565b5060405182906000906001600160a01b03841690600080516020615f34833981519152908390a45050565b604080516000808252602082019092526001600160a01b0384169083906040518082805190602001908083835b60208310613e355780518252601f199092019160209182019101613e16565b6001836020036101000a03801982511681845116808217855250505050505090500191505060006040518083038185875af1925050503d8060008114613e97576040519150601f19603f3d011682016040523d82523d6000602084013e613e9c565b606091505b5050905080610921576040805162461bcd60e51b815260206004820152600360248201526253544560e81b604482015290519081900360640190fd5b6000808080613ee786866148ba565b909450925050505b9250929050565b6000611008848484614935565b6000908152600c6020526040902080546001600160601b0319811660016001600160601b039283169081019092161790915590565b3b151590565b6001600160a01b038216613f99576040805162461bcd60e51b815260206004820181905260248201527f4552433732313a206d696e7420746f20746865207a65726f2061646472657373604482015290519081900360640190fd5b613fa2816132e0565b15613ff3576040805162461bcd60e51b815260206004820152601c60248201527b115490cdcc8c4e881d1bdad95b88185b1c9958591e481b5a5b9d195960221b604482015290519081900360640190fd5b613fff60008383610921565b6001600160a01b03821660009081526001602052604090206140219082614828565b5061402e60028284614834565b5060405181906001600160a01b03841690600090600080516020615f34833981519152908290a45050565b6001600160a01b0382166000908152600a60205260409020546001600160501b0316806114485750600d805460016001600160501b03600160b01b8084048216838101909216026001600160b01b03909316929092179092556001600160a01b038085166000908152600a6020908152604080832080546001600160501b03191686179055848352600b825291829020865181549085166001600160a01b031991821617825591870151950180549287015162ffffff16600160a01b0262ffffff60a01b19969094169290911691909117939093161790915592915050565b614143848484613bc8565b61414f848484846149ff565b61295b5760405162461bcd60e51b8152600401808060200182810382526032815260200180615db66032913960400191505060405180910390fd5b604080516001600160a01b038481166024830152604480830185905283518084039091018152606490920183526020820180516001600160e01b031663a9059cbb60e01b1781529251825160009485949389169392918291908083835b602083106142065780518252601f1990920191602091820191016141e7565b6001836020036101000a0380198251168184511680821785525050505050509050019150506000604051808303816000865af19150503d8060008114614268576040519150601f19603f3d011682016040523d82523d6000602084013e61426d565b606091505b509150915081801561429b57508051158061429b575080806020019051602081101561429857600080fd5b50515b611087576040805162461bcd60e51b815260206004820152600260248201526114d560f21b604482015290519081900360640190fd5b60006114458383614b67565b604080516001600160a01b0385811660248301528481166044830152606480830185905283518084039091018152608490920183526020820180516001600160e01b03166323b872dd60e01b178152925182516000948594938a169392918291908083835b602083106143615780518252601f199092019160209182019101614342565b6001836020036101000a0380198251168184511680821785525050505050509050019150506000604051808303816000865af19150503d80600081146143c3576040519150601f19603f3d011682016040523d82523d6000602084013e6143c8565b606091505b50915091508180156143f65750805115806143f657508080602001905160208110156143f357600080fd5b50515b6127bc576040805162461bcd60e51b815260206004820152600360248201526229aa2360e91b604482015290519081900360640190fd5b5490565b60008060008360020b12614448578260020b614450565b8260020b6000035b9050620d89e881111561448e576040805162461bcd60e51b81526020600482015260016024820152601560fa1b604482015290519081900360640190fd5b6000600182166144a257600160801b6144b4565b6ffffcb933bd6fad37aa2d162d1a5940015b6001600160881b0316905060028216156144de576ffff97272373d413259a46990580e213a0260801c5b60048216156144fd576ffff2e50f5f656932ef12357cf3c7fdcc0260801c5b600882161561451c576fffe5caca7e10e4e61c3624eaa0941cd00260801c5b601082161561453b576fffcb9843d60f6159c9db58835c9266440260801c5b602082161561455a576fff973b41fa98c081472e6896dfb254c00260801c5b6040821615614579576fff2ea16466c96a3843ec78b326b528610260801c5b6080821615614598576ffe5dee046a99a2a811c461f1969c30530260801c5b6101008216156145b8576ffcbe86c7900a88aedcffc83b479aa3a40260801c5b6102008216156145d8576ff987a7253ac413176f2b074cf7815e540260801c5b6104008216156145f8576ff3392b0822b70005940c7a398e4b70f30260801c5b610800821615614618576fe7159475a2c29b7443b29c7fa6e889d90260801c5b611000821615614638576fd097f3bdfd2022b8845ad8f792aa58250260801c5b612000821615614658576fa9f746462d870fdf8a65dc1f90e061e50260801c5b614000821615614678576f70d869a156d2a1b890bb3df62baf32f70260801c5b618000821615614698576f31be135f97d08fd981231505542fcfa60260801c5b620100008216156146b9576f09aa508b5b7a84e1c677de54f3e99bc90260801c5b620200008216156146d9576e5d6af8dedb81196699c329225ee6040260801c5b620400008216156146f8576d2216e584f5fa1ea926041bedfe980260801c5b62080000821615614715576b048a170391f7dc42444e8fa20260801c5b60008460020b131561473057806000198161472c57fe5b0490505b600160201b810615614743576001614746565b60005b60ff16602082901c0192505050919050565b6000836001600160a01b0316856001600160a01b03161115614778579293925b846001600160a01b0316866001600160a01b0316116147a35761479c858585614b7f565b9050614813565b836001600160a01b0316866001600160a01b031610156148055760006147ca878686614b7f565b905060006147d9878986614be2565b9050806001600160801b0316826001600160801b0316106147fa57806147fc565b815b92505050614813565b614810858584614be2565b90505b95945050505050565b60006114458383614c1f565b60006114458383614ce5565b600061100884846001600160a01b038516614d2f565b8154600090821061488c5760405162461bcd60e51b8152600401808060200182810382526022815260200180615d946022913960400191505060405180910390fd5b82600001828154811061489b57fe5b9060005260206000200154905092915050565b60006114458383614dc6565b8154600090819083106148fe5760405162461bcd60e51b8152600401808060200182810382526022815260200180615ee96022913960400191505060405180910390fd5b600084600001848154811061490f57fe5b906000526020600020906002020190508060000154816001015492509250509250929050565b600082815260018401602052604081205482816149d05760405162461bcd60e51b81526004018080602001828103825283818151815260200191508051906020019080838360005b8381101561499557818101518382015260200161497d565b50505050905090810190601f1680156149c25780820380516001836020036101000a031916815260200191505b509250505060405180910390fd5b508460000160018203815481106149e357fe5b9060005260206000209060020201600101549150509392505050565b6000614a13846001600160a01b0316613f38565b614a1f57506001611008565b6000614b2d630a85bd0160e11b614a346132ed565b88878760405160240180856001600160a01b03168152602001846001600160a01b0316815260200183815260200180602001828103825283818151815260200191508051906020019080838360005b83811015614a9b578181015183820152602001614a83565b50505050905090810190601f168015614ac85780820380516001836020036101000a031916815260200191505b5095505050505050604051602081830303815290604052906001600160e01b0319166020820180516001600160e01b038381831617835250505050604051806060016040528060328152602001615db6603291396001600160a01b0388169190614e9a565b90506000818060200190516020811015614b4657600080fd5b50516001600160e01b031916630a85bd0160e11b1492505050949350505050565b60009081526001919091016020526040902054151590565b6000826001600160a01b0316846001600160a01b03161115614b9f579192915b6000614bc2856001600160a01b0316856001600160a01b0316600160601b61350f565b9050614813614bdd84838888036001600160a01b031661350f565b614ea9565b6000826001600160a01b0316846001600160a01b03161115614c02579192915b611008614bdd83600160601b8787036001600160a01b031661350f565b60008181526001830160205260408120548015614cdb5783546000198083019190810190600090879083908110614c5257fe5b9060005260206000200154905080876000018481548110614c6f57fe5b600091825260208083209091019290925582815260018981019092526040902090840190558654879080614c9f57fe5b60019003818190600052602060002001600090559055866001016000878152602001908152602001600020600090556001945050505050611448565b6000915050611448565b6000614cf18383614b67565b614d2757508154600181810184556000848152602080822090930184905584548482528286019093526040902091909155611448565b506000611448565b600082815260018401602052604081205480614d94575050604080518082018252838152602080820184815286546001818101895560008981528481209551600290930290950191825591519082015586548684528188019092529290912055613508565b82856000016001830381548110614da757fe5b9060005260206000209060020201600101819055506000915050613508565b60008181526001830160205260408120548015614cdb5783546000198083019190810190600090879083908110614df957fe5b9060005260206000209060020201905080876000018481548110614e1957fe5b600091825260208083208454600290930201918255600193840154918401919091558354825289830190526040902090840190558654879080614e5857fe5b60008281526020808220600260001990940193840201828155600190810183905592909355888152898201909252604082209190915594506114489350505050565b60606110088484600085614ebf565b806001600160801b038116811461073857600080fd5b606082471015614f005760405162461bcd60e51b8152600401808060200182810382526026815260200180615e0c6026913960400191505060405180910390fd5b614f0985613f38565b614f5a576040805162461bcd60e51b815260206004820152601d60248201527f416464726573733a2063616c6c20746f206e6f6e2d636f6e7472616374000000604482015290519081900360640190fd5b600080866001600160a01b031685876040518082805190602001908083835b60208310614f985780518252601f199092019160209182019101614f79565b6001836020036101000a03801982511681845116808217855250505050505090500191505060006040518083038185875af1925050503d8060008114614ffa576040519150601f19603f3d011682016040523d82523d6000602084013e614fff565b606091505b509150915061500f82828661501a565b979650505050505050565b60608315615029575081613508565b8251156150395782518084602001fd5b60405162461bcd60e51b815260206004820181815284516024840152845185939192839260440191908501908083836000831561499557818101518382015260200161497d565b50805460018160011615610100020316600290046000825580601f106150a6575061338d565b601f01602090049060005260206000209081019061338d91905b808211156150d457600081556001016150c0565b5090565b803561073881615d3d565b805161ffff8116811461073857600080fd5b803562ffffff8116811461073857600080fd5b600060208284031215615119578081fd5b813561350881615d3d565b600060208284031215615135578081fd5b815161350881615d3d565b60008060408385031215615152578081fd5b823561515d81615d3d565b9150602083013561516d81615d3d565b809150509250929050565b6000806000806080858703121561518d578182fd5b843561519881615d3d565b935060208501356151a881615d3d565b92506151b6604086016150f5565b915060608501356151c681615d3d565b939692955090935050565b6000806000606084860312156151e5578081fd5b83356151f081615d3d565b9250602084013561520081615d3d565b929592945050506040919091013590565b60008060008060808587031215615226578182fd5b843561523181615d3d565b9350602085013561524181615d3d565b92506040850135915060608501356001600160401b03811115615262578182fd5b8501601f81018713615272578182fd5b803561528561528082615cf0565b615ccd565b818152886020838501011115615299578384fd5b81602084016020830137908101602001929092525092959194509250565b600080604083850312156152c9578182fd5b82356152d481615d3d565b9150602083013561516d81615d52565b600080604083850312156152f6578182fd5b823561530181615d3d565b946020939093013593505050565b600080600060608486031215615323578081fd5b833561532e81615d3d565b925060208401359150604084013561534581615d3d565b809150509250925092565b60008060008060008060c08789031215615368578384fd5b863561537381615d3d565b95506020870135945060408701359350606087013561539181615d84565b9598949750929560808101359460a0909101359350915050565b600080602083850312156153bd578182fd5b82356001600160401b03808211156153d3578384fd5b818501915085601f8301126153e6578384fd5b8135818111156153f4578485fd5b8660208083028501011115615407578485fd5b60209290920196919550909350505050565b60006020828403121561542a578081fd5b81356001600160e01b031981168114613508578182fd5b600060208284031215615452578081fd5b813561350881615d60565b60008060008060808587031215615472578182fd5b84518060060b8114615482578283fd5b602086015190945061549381615d3d565b604086015190935063ffffffff811681146154ac578283fd5b60608601519092506001600160c01b03811681146151c6578182fd5b6000602082840312156154d9578081fd5b81516001600160401b038111156154ee578182fd5b8201601f810184136154fe578182fd5b805161550c61528082615cf0565b818152856020838501011115615520578384fd5b614813826020830160208601615d11565b600060808284031215615542578081fd5b50919050565b600060a08284031215615542578081fd5b600060c08284031215615542578081fd5b6000818303608081121561557c578182fd5b604051604081016001600160401b03828210818311171561559957fe5b8160405260608412156155aa578485fd5b60a08301935081841081851117156155be57fe5b5082604052843592506155d083615d3d565b9182526020840135916155e283615d3d565b8260608301526155f4604086016150f5565b60808301528152615607606085016150d8565b6020820152949350505050565b60006101608284031215615542578081fd5b600060208284031215615637578081fd5b813561350881615d6f565b60008060408385031215615654578182fd5b825161565f81615d6f565b602084015190925061516d81615d6f565b600080600080600060a08688031215615687578283fd5b855161569281615d6f565b80955050602086015193506040860151925060608601516156b281615d6f565b60808701519092506156c381615d6f565b809150509295509295909350565b600080600080600080600060e0888a0312156156eb578485fd5b87516156f681615d3d565b602089015190975061570781615d60565b9550615715604089016150e3565b9450615723606089016150e3565b9350615731608089016150e3565b925060a088015161574181615d84565b60c089015190925061575281615d52565b8091505092959891949750929550565b600060208284031215615773578081fd5b611445826150f5565b60006020828403121561578d578081fd5b5035919050565b600080604083850312156157a6578182fd5b82359150602083013561516d81615d3d565b600080604083850312156157ca578182fd5b505080516020909101519092909150565b600080600080606085870312156157f0578182fd5b843593506020850135925060408501356001600160401b0380821115615814578384fd5b818701915087601f830112615827578384fd5b813581811115615835578485fd5b886020828501011115615846578485fd5b95989497505060200194505050565b6000815180845261586d816020860160208601615d11565b601f01601f19169290920160200192915050565b60020b9052565b6001600160801b03169052565b6000828483379101908152919050565b6001600160a01b0391909116815260200190565b6001600160a01b0386168152600285810b602083015284900b60408201526001600160801b038316606082015260a06080820181905260009061500f90830184615855565b6001600160a01b03959095168552600293840b60208601529190920b60408401526001600160801b03918216606084015216608082015260a00190565b6001600160a01b039390931683526001600160801b03918216602084015216604082015260600190565b6001600160a01b039687168152602081019590955260408501939093529316606083015263ffffffff928316608083015290911660a082015260c00190565b6000602080830181845280855180835260408601915060408482028701019250838701855b828110156159f757603f198886030184526159e5858351615855565b945092850192908501906001016159c9565b5092979650505050505050565b901515815260200190565b90815260200190565b6001600160a01b03929092168252602082015260400190565b600292830b8152910b602082015260400190565b600293840b81529190920b60208201526001600160801b03909116604082015260600190565b6000602082526114456020830184615855565b6020808252600c908201526b139bdd08185c1c1c9bdd995960a21b604082015260600190565b60208082526019908201527822a9219b99189d103737b732bc34b9ba32b73a103a37b5b2b760391b604082015260600190565b602080825260149082015273507269636520736c69707061676520636865636b60601b604082015260600190565b60208082526010908201526f125b9d985b1a59081d1bdad95b88125160821b604082015260600190565b815180516001600160a01b03908116835260208083015182168185015260409283015162ffffff1692840192909252920151909116606082015260800190565b6001600160801b039390931683526020830191909152604082015260600190565b6001600160c01b0394909416845263ffffffff928316602085015291166040830152606082015260800190565b9384526001600160801b039290921660208401526040830152606082015260800190565b918252602082015260400190565b6001600160601b038d1681526001600160a01b038c811660208301528b811660408301528a16606082015262ffffff89166080820152600288900b60a08201526101808101615c4160c0830189615881565b615c4e60e0830188615888565b8561010083015284610120830152615c6a610140830185615888565b615c78610160830184615888565b9d9c50505050505050505050505050565b6000808335601e19843603018112615c9f578283fd5b8301803591506001600160401b03821115615cb8578283fd5b602001915036819003821315613eef57600080fd5b6040518181016001600160401b0381118282101715615ce857fe5b604052919050565b60006001600160401b03821115615d0357fe5b50601f01601f191660200190565b60005b83811015615d2c578181015183820152602001615d14565b8381111561295b5750506000910152565b6001600160a01b038116811461338d57600080fd5b801515811461338d57600080fd5b8060020b811461338d57600080fd5b6001600160801b038116811461338d57600080fd5b60ff8116811461338d57600080fdfe456e756d657261626c655365743a20696e646578206f7574206f6620626f756e64734552433732313a207472616e7366657220746f206e6f6e20455243373231526563656976657220696d706c656d656e7465724552433732313a207472616e7366657220746f20746865207a65726f2061646472657373416464726573733a20696e73756666696369656e742062616c616e636520666f722063616c6c4552433732313a206f70657261746f7220717565727920666f72206e6f6e6578697374656e7420746f6b656e4552433732313a20617070726f76652063616c6c6572206973206e6f74206f776e6572206e6f7220617070726f76656420666f7220616c6c4552433732313a2062616c616e636520717565727920666f7220746865207a65726f20616464726573734552433732313a206f776e657220717565727920666f72206e6f6e6578697374656e7420746f6b656e456e756d657261626c654d61703a20696e646578206f7574206f6620626f756e64734552433732313a207472616e73666572206f6620746f6b656e2074686174206973206e6f74206f776eddf252ad1be2c89b69c2b068fc378daa952ba7f163c4a11628f55a4df523b3ef4552433732313a20617070726f76616c20746f2063757272656e74206f776e65724552433732313a207472616e736665722063616c6c6572206973206e6f74206f776e6572206e6f7220617070726f766564a26469706673582212202784d73fd35692be7ea77327ccd655a5fdf38b77533b8094bf15b461ab5ffc8764736f6c63430007060033",
  "linkReferences": {},
  "deployedLinkReferences": {}
}